{
  "_format": "hh-sol-artifact-1",
  "contractName": "POTATToken",
  "sourceName": "contracts/main.sol",
  "abi": [
    {
      "inputs": [],
      "stateMutability": "nonpayable",
      "type": "constructor"
    },
    {
      "anonymous": false,
      "inputs": [
        {
          "indexed": true,
          "internalType": "address",
          "name": "owner",
          "type": "address"
        },
        {
          "indexed": true,
          "internalType": "address",
          "name": "spender",
          "type": "address"
        },
        {
          "indexed": false,
          "internalType": "uint256",
          "name": "value",
          "type": "uint256"
        }
      ],
      "name": "Approval",
      "type": "event"
    },
    {
      "anonymous": false,
      "inputs": [
        {
          "indexed": true,
          "internalType": "address",
          "name": "from",
          "type": "address"
        },
        {
          "indexed": true,
          "internalType": "address",
          "name": "to",
          "type": "address"
        },
        {
          "indexed": false,
          "internalType": "uint256",
          "name": "value",
          "type": "uint256"
        }
      ],
      "name": "Transfer",
      "type": "event"
    },
    {
      "stateMutability": "payable",
      "type": "fallback"
    },
    {
      "inputs": [
        {
          "internalType": "address",
          "name": "owner",
          "type": "address"
        },
        {
          "internalType": "address",
          "name": "spender",
          "type": "address"
        }
      ],
      "name": "allowance",
      "outputs": [
        {
          "internalType": "uint256",
          "name": "",
          "type": "uint256"
        }
      ],
      "stateMutability": "view",
      "type": "function"
    },
    {
      "inputs": [
        {
          "internalType": "address",
          "name": "spender",
          "type": "address"
        },
        {
          "internalType": "uint256",
          "name": "amount",
          "type": "uint256"
        }
      ],
      "name": "approve",
      "outputs": [
        {
          "internalType": "bool",
          "name": "",
          "type": "bool"
        }
      ],
      "stateMutability": "nonpayable",
      "type": "function"
    },
    {
      "inputs": [],
      "name": "automatedDistribution",
      "outputs": [],
      "stateMutability": "nonpayable",
      "type": "function"
    },
    {
      "inputs": [
        {
          "internalType": "address",
          "name": "account",
          "type": "address"
        }
      ],
      "name": "balanceOf",
      "outputs": [
        {
          "internalType": "uint256",
          "name": "",
          "type": "uint256"
        }
      ],
      "stateMutability": "view",
      "type": "function"
    },
    {
      "inputs": [],
      "name": "buying",
      "outputs": [],
      "stateMutability": "payable",
      "type": "function"
    },
    {
      "inputs": [],
      "name": "decimals",
      "outputs": [
        {
          "internalType": "uint8",
          "name": "",
          "type": "uint8"
        }
      ],
      "stateMutability": "view",
      "type": "function"
    },
    {
      "inputs": [
        {
          "internalType": "address",
          "name": "spender",
          "type": "address"
        },
        {
          "internalType": "uint256",
          "name": "subtractedValue",
          "type": "uint256"
        }
      ],
      "name": "decreaseAllowance",
      "outputs": [
        {
          "internalType": "bool",
          "name": "",
          "type": "bool"
        }
      ],
      "stateMutability": "nonpayable",
      "type": "function"
    },
    {
      "inputs": [
        {
          "internalType": "address",
          "name": "spender",
          "type": "address"
        },
        {
          "internalType": "uint256",
          "name": "addedValue",
          "type": "uint256"
        }
      ],
      "name": "increaseAllowance",
      "outputs": [
        {
          "internalType": "bool",
          "name": "",
          "type": "bool"
        }
      ],
      "stateMutability": "nonpayable",
      "type": "function"
    },
    {
      "inputs": [],
      "name": "name",
      "outputs": [
        {
          "internalType": "string",
          "name": "",
          "type": "string"
        }
      ],
      "stateMutability": "view",
      "type": "function"
    },
    {
      "inputs": [
        {
          "internalType": "address",
          "name": "",
          "type": "address"
        }
      ],
      "name": "purchaseTimestamps",
      "outputs": [
        {
          "internalType": "uint256",
          "name": "",
          "type": "uint256"
        }
      ],
      "stateMutability": "view",
      "type": "function"
    },
    {
      "inputs": [],
      "name": "redeemExpiredTokens",
      "outputs": [],
      "stateMutability": "nonpayable",
      "type": "function"
    },
    {
      "inputs": [],
      "name": "symbol",
      "outputs": [
        {
          "internalType": "string",
          "name": "",
          "type": "string"
        }
      ],
      "stateMutability": "view",
      "type": "function"
    },
    {
      "inputs": [],
      "name": "totalSupply",
      "outputs": [
        {
          "internalType": "uint256",
          "name": "",
          "type": "uint256"
        }
      ],
      "stateMutability": "view",
      "type": "function"
    },
    {
      "inputs": [
        {
          "internalType": "address",
          "name": "recipient",
          "type": "address"
        },
        {
          "internalType": "uint256",
          "name": "amount",
          "type": "uint256"
        }
      ],
      "name": "transfer",
      "outputs": [
        {
          "internalType": "bool",
          "name": "",
          "type": "bool"
        }
      ],
      "stateMutability": "nonpayable",
      "type": "function"
    },
    {
      "inputs": [
        {
          "internalType": "address",
          "name": "sender",
          "type": "address"
        },
        {
          "internalType": "address",
          "name": "recipient",
          "type": "address"
        },
        {
          "internalType": "uint256",
          "name": "amount",
          "type": "uint256"
        }
      ],
      "name": "transferFrom",
      "outputs": [
        {
          "internalType": "bool",
          "name": "",
          "type": "bool"
        }
      ],
      "stateMutability": "nonpayable",
      "type": "function"
    },
    {
      "stateMutability": "payable",
      "type": "receive"
    }
  ],
  "bytecode": "0x60806040523480156200001157600080fd5b50604051806040016040528060058152602001641c1bdd185d60da1b815250604051806040016040528060058152602001641413d5105560da1b81525081600390805190602001906200006692919062000097565b5080516200007c90600490602084019062000097565b5050600580546001600160a01b03191633179055506200017a565b828054620000a5906200013d565b90600052602060002090601f016020900481019282620000c9576000855562000114565b82601f10620000e457805160ff191683800117855562000114565b8280016001018555821562000114579182015b8281111562000114578251825591602001919060010190620000f7565b506200012292915062000126565b5090565b5b8082111562000122576000815560010162000127565b600181811c908216806200015257607f821691505b602082108114156200017457634e487b7160e01b600052602260045260246000fd5b50919050565b610e43806200018a6000396000f3fe6080604052600436106100e05760003560e01c806370a0823111610084578063a457c2d711610056578063a457c2d714610254578063a9059cbb14610274578063dd62ed3e14610294578063dffcfecc146102da57005b806370a08231146101d4578063928bc6a01461020a57806395d89b41146102125780639792a2051461022757005b806323b872dd116100bd57806323b872dd14610163578063313ce56714610183578063338b7fb41461019f57806339509351146101b457005b806306fdde03146100e9578063095ea7b31461011457806318160ddd1461014457005b366100e757005b005b3480156100f557600080fd5b506100fe6102ef565b60405161010b9190610d16565b60405180910390f35b34801561012057600080fd5b5061013461012f366004610cec565b610381565b604051901515815260200161010b565b34801561015057600080fd5b506002545b60405190815260200161010b565b34801561016f57600080fd5b5061013461017e366004610cb0565b610397565b34801561018f57600080fd5b506040516012815260200161010b565b3480156101ab57600080fd5b506100e761041e565b3480156101c057600080fd5b506101346101cf366004610cec565b6104a4565b3480156101e057600080fd5b506101556101ef366004610c5b565b6001600160a01b031660009081526020819052604090205490565b6100e76104e0565b34801561021e57600080fd5b506100fe61054c565b34801561023357600080fd5b50610155610242366004610c5b565b60066020526000908152604090205481565b34801561026057600080fd5b5061013461026f366004610cec565b61055b565b34801561028057600080fd5b5061013461028f366004610cec565b6105f4565b3480156102a057600080fd5b506101556102af366004610c7d565b6001600160a01b03918216600090815260016020908152604080832093909416825291909152205490565b3480156102e657600080fd5b506100e761066c565b6060600380546102fe90610dbc565b80601f016020809104026020016040519081016040528092919081815260200182805461032a90610dbc565b80156103775780601f1061034c57610100808354040283529160200191610377565b820191906000526020600020905b81548152906001019060200180831161035a57829003601f168201915b5050505050905090565b600061038e33848461067e565b50600192915050565b6001600160a01b0383166000908152600660205260408120548490603c906103bf9042610da5565b11156104075760405162461bcd60e51b8152602060048201526012602482015271151bdad95b9cc8185c9948195e1c1a5c995960721b60448201526064015b60405180910390fd5b6104128585856107a3565b50600195945050505050565b33600090815260066020526040902054603c9061043b9042610da5565b116104885760405162461bcd60e51b815260206004820152601a60248201527f546f6b656e7320617265206e6f7420657870697265642079657400000000000060448201526064016103fe565b336000818152602081905260409020546104a29190610842565b565b3360008181526001602090815260408083206001600160a01b0387168452909152812054909161038e9185906104db908690610d6b565b61067e565b346105245760405162461bcd60e51b815260206004820152601460248201527326bab9ba1039b2b7321039b7b6b29022ba3432b960611b60448201526064016103fe565b61053833610533606434610d83565b610988565b336000908152600660205260409020429055565b6060600480546102fe90610dbc565b3360009081526001602090815260408083206001600160a01b0386168452909152812054828110156105dd5760405162461bcd60e51b815260206004820152602560248201527f45524332303a2064656372656173656420616c6c6f77616e63652062656c6f77604482015264207a65726f60d81b60648201526084016103fe565b6105ea338585840361067e565b5060019392505050565b33600081815260066020526040812054909190603c906106149042610da5565b11156106575760405162461bcd60e51b8152602060048201526012602482015271151bdad95b9cc8185c9948195e1c1a5c995960721b60448201526064016103fe565b6106618484610a67565b506001949350505050565b61053833670de0b6b3a7640000610988565b6001600160a01b0383166106e05760405162461bcd60e51b8152602060048201526024808201527f45524332303a20617070726f76652066726f6d20746865207a65726f206164646044820152637265737360e01b60648201526084016103fe565b6001600160a01b0382166107415760405162461bcd60e51b815260206004820152602260248201527f45524332303a20617070726f766520746f20746865207a65726f206164647265604482015261737360f01b60648201526084016103fe565b6001600160a01b0383811660008181526001602090815260408083209487168084529482529182902085905590518481527f8c5be1e5ebec7d5bd14f71427d1e84f3dd0314c0f7b2291e5b200ac8c7c3b92591015b60405180910390a3505050565b60006107b0848484610a70565b6001600160a01b0384166000908152600160209081526040808320338452909152902054828110156108355760405162461bcd60e51b815260206004820152602860248201527f45524332303a207472616e7366657220616d6f756e74206578636565647320616044820152676c6c6f77616e636560c01b60648201526084016103fe565b610661853385840361067e565b6001600160a01b0382166108a25760405162461bcd60e51b815260206004820152602160248201527f45524332303a206275726e2066726f6d20746865207a65726f206164647265736044820152607360f81b60648201526084016103fe565b6001600160a01b038216600090815260208190526040902054818110156109165760405162461bcd60e51b815260206004820152602260248201527f45524332303a206275726e20616d6f756e7420657863656564732062616c616e604482015261636560f01b60648201526084016103fe565b6001600160a01b0383166000908152602081905260408120838303905560028054849290610945908490610da5565b90915550506040518281526000906001600160a01b038516907fddf252ad1be2c89b69c2b068fc378daa952ba7f163c4a11628f55a4df523b3ef90602001610796565b6001600160a01b0382166109de5760405162461bcd60e51b815260206004820152601f60248201527f45524332303a206d696e7420746f20746865207a65726f20616464726573730060448201526064016103fe565b80600260008282546109f09190610d6b565b90915550506001600160a01b03821660009081526020819052604081208054839290610a1d908490610d6b565b90915550506040518181526001600160a01b038316906000907fddf252ad1be2c89b69c2b068fc378daa952ba7f163c4a11628f55a4df523b3ef9060200160405180910390a35050565b600061038e3384845b6001600160a01b038316610ad45760405162461bcd60e51b815260206004820152602560248201527f45524332303a207472616e736665722066726f6d20746865207a65726f206164604482015264647265737360d81b60648201526084016103fe565b6001600160a01b038216610b365760405162461bcd60e51b815260206004820152602360248201527f45524332303a207472616e7366657220746f20746865207a65726f206164647260448201526265737360e81b60648201526084016103fe565b6001600160a01b03831660009081526020819052604090205481811015610bae5760405162461bcd60e51b815260206004820152602660248201527f45524332303a207472616e7366657220616d6f756e7420657863656564732062604482015265616c616e636560d01b60648201526084016103fe565b6001600160a01b03808516600090815260208190526040808220858503905591851681529081208054849290610be5908490610d6b565b92505081905550826001600160a01b0316846001600160a01b03167fddf252ad1be2c89b69c2b068fc378daa952ba7f163c4a11628f55a4df523b3ef84604051610c3191815260200190565b60405180910390a350505050565b80356001600160a01b0381168114610c5657600080fd5b919050565b600060208284031215610c6d57600080fd5b610c7682610c3f565b9392505050565b60008060408385031215610c9057600080fd5b610c9983610c3f565b9150610ca760208401610c3f565b90509250929050565b600080600060608486031215610cc557600080fd5b610cce84610c3f565b9250610cdc60208501610c3f565b9150604084013590509250925092565b60008060408385031215610cff57600080fd5b610d0883610c3f565b946020939093013593505050565b600060208083528351808285015260005b81811015610d4357858101830151858201604001528201610d27565b81811115610d55576000604083870101525b50601f01601f1916929092016040019392505050565b60008219821115610d7e57610d7e610df7565b500190565b600082610da057634e487b7160e01b600052601260045260246000fd5b500490565b600082821015610db757610db7610df7565b500390565b600181811c90821680610dd057607f821691505b60208210811415610df157634e487b7160e01b600052602260045260246000fd5b50919050565b634e487b7160e01b600052601160045260246000fdfea2646970667358221220eeb811b8c1e90eadd21e4b5c1b6723780f6a3bdf7332f107f04b5864bb00c0fc64736f6c63430008070033",
  "linkReferences": {},
  "deployedLinkReferences": {}
}